{
  "contractName": "Record",
  "abi": [
    {
      "constant": true,
      "inputs": [
        {
          "name": "",
          "type": "uint256"
        }
      ],
      "name": "formsList",
      "outputs": [
        {
          "name": "",
          "type": "address"
        }
      ],
      "payable": false,
      "stateMutability": "view",
      "type": "function"
    },
    {
      "constant": true,
      "inputs": [
        {
          "name": "",
          "type": "uint256"
        }
      ],
      "name": "paymentsList",
      "outputs": [
        {
          "name": "",
          "type": "address"
        }
      ],
      "payable": false,
      "stateMutability": "view",
      "type": "function"
    },
    {
      "constant": true,
      "inputs": [
        {
          "name": "",
          "type": "uint256"
        }
      ],
      "name": "clientList",
      "outputs": [
        {
          "name": "",
          "type": "address"
        }
      ],
      "payable": false,
      "stateMutability": "view",
      "type": "function"
    },
    {
      "constant": true,
      "inputs": [],
      "name": "owner",
      "outputs": [
        {
          "name": "",
          "type": "address"
        }
      ],
      "payable": false,
      "stateMutability": "view",
      "type": "function"
    },
    {
      "constant": true,
      "inputs": [],
      "name": "paymentsCount",
      "outputs": [
        {
          "name": "",
          "type": "uint256"
        }
      ],
      "payable": false,
      "stateMutability": "view",
      "type": "function"
    },
    {
      "constant": true,
      "inputs": [],
      "name": "formsCount",
      "outputs": [
        {
          "name": "",
          "type": "uint256"
        }
      ],
      "payable": false,
      "stateMutability": "view",
      "type": "function"
    },
    {
      "constant": true,
      "inputs": [],
      "name": "clientCount",
      "outputs": [
        {
          "name": "",
          "type": "uint256"
        }
      ],
      "payable": false,
      "stateMutability": "view",
      "type": "function"
    },
    {
      "inputs": [],
      "payable": false,
      "stateMutability": "nonpayable",
      "type": "constructor"
    },
    {
      "constant": false,
      "inputs": [
        {
          "name": "_name",
          "type": "string"
        },
        {
          "name": "_phone",
          "type": "string"
        },
        {
          "name": "_gender",
          "type": "string"
        },
        {
          "name": "_location",
          "type": "string"
        },
        {
          "name": "_taxnumber",
          "type": "string"
        }
      ],
      "name": "setClient",
      "outputs": [],
      "payable": false,
      "stateMutability": "nonpayable",
      "type": "function"
    },
    {
      "constant": true,
      "inputs": [],
      "name": "getClients",
      "outputs": [
        {
          "name": "",
          "type": "address[]"
        }
      ],
      "payable": false,
      "stateMutability": "view",
      "type": "function"
    },
    {
      "constant": false,
      "inputs": [
        {
          "name": "_addr",
          "type": "address"
        },
        {
          "name": "_date",
          "type": "string"
        },
        {
          "name": "_due",
          "type": "string"
        },
        {
          "name": "_why",
          "type": "string"
        },
        {
          "name": "_plan",
          "type": "string"
        },
        {
          "name": "_description",
          "type": "string"
        }
      ],
      "name": "setForm",
      "outputs": [],
      "payable": false,
      "stateMutability": "nonpayable",
      "type": "function"
    },
    {
      "constant": true,
      "inputs": [],
      "name": "getForms",
      "outputs": [
        {
          "name": "",
          "type": "address[]"
        }
      ],
      "payable": false,
      "stateMutability": "view",
      "type": "function"
    },
    {
      "constant": false,
      "inputs": [
        {
          "name": "_addr",
          "type": "address"
        },
        {
          "name": "_date",
          "type": "string"
        },
        {
          "name": "_amount",
          "type": "string"
        },
        {
          "name": "_pay_id",
          "type": "string"
        }
      ],
      "name": "setPayment",
      "outputs": [],
      "payable": false,
      "stateMutability": "nonpayable",
      "type": "function"
    },
    {
      "constant": true,
      "inputs": [],
      "name": "getPayment",
      "outputs": [
        {
          "name": "",
          "type": "address[]"
        }
      ],
      "payable": false,
      "stateMutability": "view",
      "type": "function"
    },
    {
      "constant": true,
      "inputs": [
        {
          "name": "_address",
          "type": "address"
        }
      ],
      "name": "searchClient",
      "outputs": [
        {
          "name": "",
          "type": "address"
        },
        {
          "name": "",
          "type": "string"
        },
        {
          "name": "",
          "type": "string"
        },
        {
          "name": "",
          "type": "string"
        },
        {
          "name": "",
          "type": "string"
        },
        {
          "name": "",
          "type": "string"
        }
      ],
      "payable": false,
      "stateMutability": "view",
      "type": "function"
    },
    {
      "constant": true,
      "inputs": [
        {
          "name": "_address",
          "type": "address"
        }
      ],
      "name": "searchForms",
      "outputs": [
        {
          "name": "",
          "type": "address"
        },
        {
          "name": "",
          "type": "string"
        },
        {
          "name": "",
          "type": "string"
        },
        {
          "name": "",
          "type": "string"
        },
        {
          "name": "",
          "type": "string"
        }
      ],
      "payable": false,
      "stateMutability": "view",
      "type": "function"
    },
    {
      "constant": true,
      "inputs": [
        {
          "name": "_address",
          "type": "address"
        }
      ],
      "name": "searchPayment",
      "outputs": [
        {
          "name": "",
          "type": "address"
        },
        {
          "name": "",
          "type": "string"
        },
        {
          "name": "",
          "type": "string"
        },
        {
          "name": "",
          "type": "string"
        }
      ],
      "payable": false,
      "stateMutability": "view",
      "type": "function"
    },
    {
      "constant": true,
      "inputs": [],
      "name": "getClientCount",
      "outputs": [
        {
          "name": "",
          "type": "uint256"
        }
      ],
      "payable": false,
      "stateMutability": "view",
      "type": "function"
    },
    {
      "constant": true,
      "inputs": [],
      "name": "getFormsCount",
      "outputs": [
        {
          "name": "",
          "type": "uint256"
        }
      ],
      "payable": false,
      "stateMutability": "view",
      "type": "function"
    },
    {
      "constant": true,
      "inputs": [],
      "name": "getPaymentsCount",
      "outputs": [
        {
          "name": "",
          "type": "uint256"
        }
      ],
      "payable": false,
      "stateMutability": "view",
      "type": "function"
    }
  ],
  "bytecode": "0x606060405260006009556000600a556000600b55341561001e57600080fd5b336000806101000a81548173ffffffffffffffffffffffffffffffffffffffff021916908373ffffffffffffffffffffffffffffffffffffffff16021790555061228a8061006d6000396000f30060606040523615610104576000357c0100000000000000000000000000000000000000000000000000000000900463ffffffff1680621ae9db146101095780630c4ff4531461020b5780635a81018a146103935780635af8b662146103bc57806364c2acdb1461057957806366730302146105dc5780636a2fe7a51461063f5780636db80995146106a25780637db674b61461070c5780638485da57146109a15780638da5cb5b14610bca578063aafab1e814610c1f578063bb328a7d14610c48578063c56ad1a514610cb2578063c5e6e68914610cdb578063cab3cc8d14610d45578063cacf1e0e14610d6e578063defce4b514610d97578063e541c71e14610f00575b600080fd5b341561011457600080fd5b610209600480803573ffffffffffffffffffffffffffffffffffffffff1690602001909190803590602001908201803590602001908080601f0160208091040260200160405190810160405280939291908181526020018383808284378201915050505050509190803590602001908201803590602001908080601f0160208091040260200160405190810160405280939291908181526020018383808284378201915050505050509190803590602001908201803590602001908080601f01602080910402602001604051908101604052809392919081815260200183838082843782019150505050505091905050610f29565b005b341561021657600080fd5b610391600480803573ffffffffffffffffffffffffffffffffffffffff1690602001909190803590602001908201803590602001908080601f0160208091040260200160405190810160405280939291908181526020018383808284378201915050505050509190803590602001908201803590602001908080601f0160208091040260200160405190810160405280939291908181526020018383808284378201915050505050509190803590602001908201803590602001908080601f0160208091040260200160405190810160405280939291908181526020018383808284378201915050505050509190803590602001908201803590602001908080601f0160208091040260200160405190810160405280939291908181526020018383808284378201915050505050509190803590602001908201803590602001908080601f016020809104026020016040519081016040528093929190818152602001838380828437820191505050505050919050506110ce565b005b341561039e57600080fd5b6103a66112a7565b6040518082815260200191505060405180910390f35b34156103c757600080fd5b6103f3600480803573ffffffffffffffffffffffffffffffffffffffff169060200190919050506112b1565b604051808573ffffffffffffffffffffffffffffffffffffffff1673ffffffffffffffffffffffffffffffffffffffff168152602001806020018060200180602001848103845287818151815260200191508051906020019080838360005b8381101561046d578082015181840152602081019050610452565b50505050905090810190601f16801561049a5780820380516001836020036101000a031916815260200191505b50848103835286818151815260200191508051906020019080838360005b838110156104d35780820151818401526020810190506104b8565b50505050905090810190601f1680156105005780820380516001836020036101000a031916815260200191505b50848103825285818151815260200191508051906020019080838360005b8381101561053957808201518184015260208101905061051e565b50505050905090810190601f1680156105665780820380516001836020036101000a031916815260200191505b5097505050505050505060405180910390f35b341561058457600080fd5b61059a6004808035906020019091905050611523565b604051808273ffffffffffffffffffffffffffffffffffffffff1673ffffffffffffffffffffffffffffffffffffffff16815260200191505060405180910390f35b34156105e757600080fd5b6105fd6004808035906020019091905050611562565b604051808273ffffffffffffffffffffffffffffffffffffffff1673ffffffffffffffffffffffffffffffffffffffff16815260200191505060405180910390f35b341561064a57600080fd5b61066060048080359060200190919050506115a1565b604051808273ffffffffffffffffffffffffffffffffffffffff1673ffffffffffffffffffffffffffffffffffffffff16815260200191505060405180910390f35b34156106ad57600080fd5b6106b56115e0565b6040518080602001828103825283818151815260200191508051906020019060200280838360005b838110156106f85780820151818401526020810190506106dd565b505050509050019250505060405180910390f35b341561071757600080fd5b610743600480803573ffffffffffffffffffffffffffffffffffffffff16906020019091905050611674565b604051808773ffffffffffffffffffffffffffffffffffffffff1673ffffffffffffffffffffffffffffffffffffffff168152602001806020018060200180602001806020018060200186810386528b818151815260200191508051906020019080838360005b838110156107c55780820151818401526020810190506107aa565b50505050905090810190601f1680156107f25780820380516001836020036101000a031916815260200191505b5086810385528a818151815260200191508051906020019080838360005b8381101561082b578082015181840152602081019050610810565b50505050905090810190601f1680156108585780820380516001836020036101000a031916815260200191505b50868103845289818151815260200191508051906020019080838360005b83811015610891578082015181840152602081019050610876565b50505050905090810190601f1680156108be5780820380516001836020036101000a031916815260200191505b50868103835288818151815260200191508051906020019080838360005b838110156108f75780820151818401526020810190506108dc565b50505050905090810190601f1680156109245780820380516001836020036101000a031916815260200191505b50868103825287818151815260200191508051906020019080838360005b8381101561095d578082015181840152602081019050610942565b50505050905090810190601f16801561098a5780820380516001836020036101000a031916815260200191505b509b50505050505050505050505060405180910390f35b34156109ac57600080fd5b6109d8600480803573ffffffffffffffffffffffffffffffffffffffff16906020019091905050611aa3565b604051808673ffffffffffffffffffffffffffffffffffffffff1673ffffffffffffffffffffffffffffffffffffffff16815260200180602001806020018060200180602001858103855289818151815260200191508051906020019080838360005b83811015610a56578082015181840152602081019050610a3b565b50505050905090810190601f168015610a835780820380516001836020036101000a031916815260200191505b50858103845288818151815260200191508051906020019080838360005b83811015610abc578082015181840152602081019050610aa1565b50505050905090810190601f168015610ae95780820380516001836020036101000a031916815260200191505b50858103835287818151815260200191508051906020019080838360005b83811015610b22578082015181840152602081019050610b07565b50505050905090810190601f168015610b4f5780820380516001836020036101000a031916815260200191505b50858103825286818151815260200191508051906020019080838360005b83811015610b88578082015181840152602081019050610b6d565b50505050905090810190601f168015610bb55780820380516001836020036101000a031916815260200191505b50995050505050505050505060405180910390f35b3415610bd557600080fd5b610bdd611dc1565b604051808273ffffffffffffffffffffffffffffffffffffffff1673ffffffffffffffffffffffffffffffffffffffff16815260200191505060405180910390f35b3415610c2a57600080fd5b610c32611de6565b6040518082815260200191505060405180910390f35b3415610c5357600080fd5b610c5b611dec565b6040518080602001828103825283818151815260200191508051906020019060200280838360005b83811015610c9e578082015181840152602081019050610c83565b505050509050019250505060405180910390f35b3415610cbd57600080fd5b610cc5611e80565b6040518082815260200191505060405180910390f35b3415610ce657600080fd5b610cee611e86565b6040518080602001828103825283818151815260200191508051906020019060200280838360005b83811015610d31578082015181840152602081019050610d16565b505050509050019250505060405180910390f35b3415610d5057600080fd5b610d58611f1a565b6040518082815260200191505060405180910390f35b3415610d7957600080fd5b610d81611f24565b6040518082815260200191505060405180910390f35b3415610da257600080fd5b610efe600480803590602001908201803590602001908080601f0160208091040260200160405190810160405280939291908181526020018383808284378201915050505050509190803590602001908201803590602001908080601f0160208091040260200160405190810160405280939291908181526020018383808284378201915050505050509190803590602001908201803590602001908080601f0160208091040260200160405190810160405280939291908181526020018383808284378201915050505050509190803590602001908201803590602001908080601f0160208091040260200160405190810160405280939291908181526020018383808284378201915050505050509190803590602001908201803590602001908080601f01602080910402602001604051908101604052809392919081815260200183838082843782019150505050505091905050611f2e565b005b3415610f0b57600080fd5b610f1361215f565b6040518082815260200191505060405180910390f35b6000600860003373ffffffffffffffffffffffffffffffffffffffff1673ffffffffffffffffffffffffffffffffffffffff16815260200190815260200160002060009054906101000a900460ff161515610f8357600080fd5b600660008673ffffffffffffffffffffffffffffffffffffffff1673ffffffffffffffffffffffffffffffffffffffff1681526020019081526020016000209050848160030160006101000a81548173ffffffffffffffffffffffffffffffffffffffff021916908373ffffffffffffffffffffffffffffffffffffffff1602179055508381600001908051906020019061101f929190612165565b5082816001019080519060200190611038929190612165565b5081816002019080519060200190611051929190612165565b506003805480600101828161106691906121e5565b9160005260206000209001600087909190916101000a81548173ffffffffffffffffffffffffffffffffffffffff021916908373ffffffffffffffffffffffffffffffffffffffff16021790555050600b600081548092919060010191905055505050505050565b6000600860003373ffffffffffffffffffffffffffffffffffffffff1673ffffffffffffffffffffffffffffffffffffffff16815260200190815260200160002060009054906101000a900460ff16151561112857600080fd5b600460008873ffffffffffffffffffffffffffffffffffffffff1673ffffffffffffffffffffffffffffffffffffffff1681526020019081526020016000209050868160050160006101000a81548173ffffffffffffffffffffffffffffffffffffffff021916908373ffffffffffffffffffffffffffffffffffffffff160217905550858160000190805190602001906111c4929190612165565b50848160010190805190602001906111dd929190612165565b50838160020190805190602001906111f6929190612165565b508281600301908051906020019061120f929190612165565b5081816004019080519060200190611228929190612165565b506002805480600101828161123d91906121e5565b9160005260206000209001600089909190916101000a81548173ffffffffffffffffffffffffffffffffffffffff021916908373ffffffffffffffffffffffffffffffffffffffff16021790555050600a6000815480929190600101919050555050505050505050565b6000600954905090565b60006112bb612211565b6112c3612211565b6112cb612211565b6000600660008773ffffffffffffffffffffffffffffffffffffffff1673ffffffffffffffffffffffffffffffffffffffff16815260200190815260200160002090508060030160009054906101000a900473ffffffffffffffffffffffffffffffffffffffff16816000018260010183600201828054600181600116156101000203166002900480601f0160208091040260200160405190810160405280929190818152602001828054600181600116156101000203166002900480156113d45780601f106113a9576101008083540402835291602001916113d4565b820191906000526020600020905b8154815290600101906020018083116113b757829003601f168201915b50505050509250818054600181600116156101000203166002900480601f0160208091040260200160405190810160405280929190818152602001828054600181600116156101000203166002900480156114705780601f1061144557610100808354040283529160200191611470565b820191906000526020600020905b81548152906001019060200180831161145357829003601f168201915b50505050509150808054600181600116156101000203166002900480601f01602080910402602001604051908101604052809291908181526020018280546001816001161561010002031660029004801561150c5780601f106114e15761010080835404028352916020019161150c565b820191906000526020600020905b8154815290600101906020018083116114ef57829003601f168201915b505050505090509450945094509450509193509193565b60028181548110151561153257fe5b90600052602060002090016000915054906101000a900473ffffffffffffffffffffffffffffffffffffffff1681565b60038181548110151561157157fe5b90600052602060002090016000915054906101000a900473ffffffffffffffffffffffffffffffffffffffff1681565b6001818154811015156115b057fe5b90600052602060002090016000915054906101000a900473ffffffffffffffffffffffffffffffffffffffff1681565b6115e8612225565b600180548060200260200160405190810160405280929190818152602001828054801561166a57602002820191906000526020600020905b8160009054906101000a900473ffffffffffffffffffffffffffffffffffffffff1673ffffffffffffffffffffffffffffffffffffffff1681526020019060010190808311611620575b5050505050905090565b600061167e612211565b611686612211565b61168e612211565b611696612211565b61169e612211565b600080600460008a73ffffffffffffffffffffffffffffffffffffffff1673ffffffffffffffffffffffffffffffffffffffff1681526020019081526020016000209150600560008360050160009054906101000a900473ffffffffffffffffffffffffffffffffffffffff1673ffffffffffffffffffffffffffffffffffffffff1673ffffffffffffffffffffffffffffffffffffffff16815260200190815260200160002090508160050160009054906101000a900473ffffffffffffffffffffffffffffffffffffffff168160000182600101836002018460030185600401848054600181600116156101000203166002900480601f0160208091040260200160405190810160405280929190818152602001828054600181600116156101000203166002900480156118155780601f106117ea57610100808354040283529160200191611815565b820191906000526020600020905b8154815290600101906020018083116117f857829003601f168201915b50505050509450838054600181600116156101000203166002900480601f0160208091040260200160405190810160405280929190818152602001828054600181600116156101000203166002900480156118b15780601f10611886576101008083540402835291602001916118b1565b820191906000526020600020905b81548152906001019060200180831161189457829003601f168201915b50505050509350828054600181600116156101000203166002900480601f01602080910402602001604051908101604052809291908181526020018280546001816001161561010002031660029004801561194d5780601f106119225761010080835404028352916020019161194d565b820191906000526020600020905b81548152906001019060200180831161193057829003601f168201915b50505050509250818054600181600116156101000203166002900480601f0160208091040260200160405190810160405280929190818152602001828054600181600116156101000203166002900480156119e95780601f106119be576101008083540402835291602001916119e9565b820191906000526020600020905b8154815290600101906020018083116119cc57829003601f168201915b50505050509150808054600181600116156101000203166002900480601f016020809104026020016040519081016040528092919081815260200182805460018160011615610100020316600290048015611a855780601f10611a5a57610100808354040283529160200191611a85565b820191906000526020600020905b815481529060010190602001808311611a6857829003601f168201915b50505050509050975097509750975097509750505091939550919395565b6000611aad612211565b611ab5612211565b611abd612211565b611ac5612211565b6000600460008873ffffffffffffffffffffffffffffffffffffffff1673ffffffffffffffffffffffffffffffffffffffff16815260200190815260200160002090508060050160009054906101000a900473ffffffffffffffffffffffffffffffffffffffff1681600001826001018360030184600401838054600181600116156101000203166002900480601f016020809104026020016040519081016040528092919081815260200182805460018160011615610100020316600290048015611bd25780601f10611ba757610100808354040283529160200191611bd2565b820191906000526020600020905b815481529060010190602001808311611bb557829003601f168201915b50505050509350828054600181600116156101000203166002900480601f016020809104026020016040519081016040528092919081815260200182805460018160011615610100020316600290048015611c6e5780601f10611c4357610100808354040283529160200191611c6e565b820191906000526020600020905b815481529060010190602001808311611c5157829003601f168201915b50505050509250818054600181600116156101000203166002900480601f016020809104026020016040519081016040528092919081815260200182805460018160011615610100020316600290048015611d0a5780601f10611cdf57610100808354040283529160200191611d0a565b820191906000526020600020905b815481529060010190602001808311611ced57829003601f168201915b50505050509150808054600181600116156101000203166002900480601f016020809104026020016040519081016040528092919081815260200182805460018160011615610100020316600290048015611da65780601f10611d7b57610100808354040283529160200191611da6565b820191906000526020600020905b815481529060010190602001808311611d8957829003601f168201915b50505050509050955095509550955095505091939590929450565b6000809054906101000a900473ffffffffffffffffffffffffffffffffffffffff1681565b600b5481565b611df4612225565b6003805480602002602001604051908101604052809291908181526020018280548015611e7657602002820191906000526020600020905b8160009054906101000a900473ffffffffffffffffffffffffffffffffffffffff1673ffffffffffffffffffffffffffffffffffffffff1681526020019060010190808311611e2c575b5050505050905090565b600a5481565b611e8e612225565b6002805480602002602001604051908101604052809291908181526020018280548015611f1057602002820191906000526020600020905b8160009054906101000a900473ffffffffffffffffffffffffffffffffffffffff1673ffffffffffffffffffffffffffffffffffffffff1681526020019060010190808311611ec6575b5050505050905090565b6000600a54905090565b6000600b54905090565b6000600860003373ffffffffffffffffffffffffffffffffffffffff1673ffffffffffffffffffffffffffffffffffffffff16815260200190815260200160002060009054906101000a900460ff16151515611f8957600080fd5b600560003373ffffffffffffffffffffffffffffffffffffffff1673ffffffffffffffffffffffffffffffffffffffff168152602001908152602001600020905085816000019080519060200190611fe2929190612165565b5084816001019080519060200190611ffb929190612165565b5083816002019080519060200190612014929190612165565b508281600301908051906020019061202d929190612165565b5081816004019080519060200190612046929190612165565b50338160050160006101000a81548173ffffffffffffffffffffffffffffffffffffffff021916908373ffffffffffffffffffffffffffffffffffffffff1602179055506001805480600101828161209e91906121e5565b9160005260206000209001600033909190916101000a81548173ffffffffffffffffffffffffffffffffffffffff021916908373ffffffffffffffffffffffffffffffffffffffff160217905550506001600860003373ffffffffffffffffffffffffffffffffffffffff1673ffffffffffffffffffffffffffffffffffffffff16815260200190815260200160002060006101000a81548160ff021916908315150217905550600960008154809291906001019190505550505050505050565b60095481565b828054600181600116156101000203166002900490600052602060002090601f016020900481019282601f106121a657805160ff19168380011785556121d4565b828001600101855582156121d4579182015b828111156121d35782518255916020019190600101906121b8565b5b5090506121e19190612239565b5090565b81548183558181151161220c5781836000526020600020918201910161220b9190612239565b5b505050565b602060405190810160405280600081525090565b602060405190810160405280600081525090565b61225b91905b8082111561225757600081600090555060010161223f565b5090565b905600a165627a7a7230582099820097d8a3b7bc5e268970c5b29825bfb16d212ab58dcb5bba8682ed4226430029",
  "source": "pragma solidity >=0.4.17;\n\ncontract Record {   \n\n    struct Clients{         //new\n        string  name;\n        string  phone;\n        string  gender;\n        string  location;\n        string  taxnumber;\n        address addr;\n    } \n    struct Forms{              //new\n        string   date;\n        string   due;\n        string   why;\n        string   plan;\n        string   description;\n        address  clientaddr;\n    }\n    struct Payment{              //new\n        string   date;\n        string   amount;\n        string   pay_id;\n        address  clientaddr;\n    }\n                          //new\n    \n    address public owner;\n\n    address[] public clientList; //new\n    address[] public formsList; //new\n    address[] public paymentsList; //new\n\n\n    mapping(address => Forms) forms; //new\n    mapping(address => Clients) clients; //new \n    mapping(address => Payment) payments; //new \n\n\n    mapping(address=>mapping(address=>bool)) isApproved;\n\n    mapping(address => bool) isClient; //new\n\n    uint256 public clientCount = 0; //new\n    uint256 public formsCount = 0;\n    uint256 public paymentsCount = 0;\n    \n    function Record() public {\n        owner = msg.sender;\n    }\n    \n    function setClient(string _name, string _phone, string _gender, string _location, string _taxnumber) public {\n        require(!isClient[msg.sender]);\n        var cl = clients[msg.sender];\n\n        cl.name      = _name;\n        cl.phone     = _phone;\n        cl.gender    = _gender;\n        cl.location  = _location;\n        cl.taxnumber = _taxnumber;\n        cl.addr      = msg.sender;\n\n        clientList.push(msg.sender);\n        isClient[msg.sender] = true;\n        clientCount++;\n    }\n     function getClients () public view returns(address[]) {\n        return (clientList);\n    }\n    function setForm(address _addr, string _date, string _due, string _why, string _plan, string _description) public {\n        require(isClient[msg.sender]);\n        var f = forms[_addr];\n    \n        f.clientaddr = _addr;\n        f.date = _date;\n        f.due = _due;\n        f.why = _why;\n        f.plan = _plan;\n        f.description = _description;\n\n        formsList.push(_addr);\n        formsCount++;\n    }\n    function getForms() public view returns(address[]) {\n        return formsList;\n    }\n    function setPayment(address _addr, string _date, string _amount, string _pay_id) public {\n        require(isClient[msg.sender]);\n        var p = payments[_addr];\n    \n        p.clientaddr = _addr;\n        p.date = _date;\n        p.amount = _amount;\n        p.pay_id = _pay_id;\n\n        paymentsList.push(_addr);\n        paymentsCount++;\n    }\n    function getPayment() public view returns(address[]) {\n        return paymentsList;\n    }\n\n   \n    //Search for client forms and payment data\n    function searchClient(address _address) public view returns(address, string, string, string, string, string) {\n        var f = forms[_address];\n        var cl = clients[f.clientaddr];\n\n        return (f.clientaddr, cl.name, cl.phone, cl.gender, cl.location, cl.taxnumber);\n    }\n    function searchForms(address _address) public view returns(address, string, string, string, string) {\n        var f = forms[_address];\n\n        return (f.clientaddr, f.date, f.due, f.plan, f.description);\n    }\n    function searchPayment(address _address) public view returns(address, string, string, string) {\n        var p = payments[_address];\n\n        return (p.clientaddr, p.date, p.amount, p.pay_id);\n    }\n\n    //Retrieve count info \n    function getClientCount() public view returns(uint256) {\n        return clientCount;\n    }\n    function getFormsCount() public view returns(uint256) {\n        return formsCount;\n    }\n    function getPaymentsCount() public view returns(uint256) {\n        return paymentsCount;\n    }\n}",
  "sourcePath": "/home/user42/ZenconTeste/backend/contracts/Record.sol",
  "compiler": {
    "name": "solc",
    "version": "0.4.17+commit.bdeb9e52.Emscripten.clang"
  },
  "schemaVersion": "3.4.15",
  "updatedAt": "2023-09-19T18:46:58.460Z",
  "networkType": "ethereum",
  "devdoc": {
    "methods": {}
  },
  "userdoc": {
    "methods": {}
  }
}